{
  "_format": "hh-sol-artifact-1",
  "contractName": "Invite",
  "sourceName": "contracts/Invite.sol",
  "abi": [
    {
      "anonymous": false,
      "inputs": [
        {
          "indexed": true,
          "internalType": "address",
          "name": "owner",
          "type": "address"
        },
        {
          "indexed": true,
          "internalType": "address",
          "name": "approved",
          "type": "address"
        },
        {
          "indexed": true,
          "internalType": "uint256",
          "name": "tokenId",
          "type": "uint256"
        }
      ],
      "name": "Approval",
      "type": "event"
    },
    {
      "anonymous": false,
      "inputs": [
        {
          "indexed": true,
          "internalType": "address",
          "name": "owner",
          "type": "address"
        },
        {
          "indexed": true,
          "internalType": "address",
          "name": "operator",
          "type": "address"
        },
        {
          "indexed": false,
          "internalType": "bool",
          "name": "approved",
          "type": "bool"
        }
      ],
      "name": "ApprovalForAll",
      "type": "event"
    },
    {
      "anonymous": false,
      "inputs": [
        {
          "indexed": true,
          "internalType": "bytes32",
          "name": "role",
          "type": "bytes32"
        },
        {
          "indexed": true,
          "internalType": "bytes32",
          "name": "previousAdminRole",
          "type": "bytes32"
        },
        {
          "indexed": true,
          "internalType": "bytes32",
          "name": "newAdminRole",
          "type": "bytes32"
        }
      ],
      "name": "RoleAdminChanged",
      "type": "event"
    },
    {
      "anonymous": false,
      "inputs": [
        {
          "indexed": true,
          "internalType": "bytes32",
          "name": "role",
          "type": "bytes32"
        },
        {
          "indexed": true,
          "internalType": "address",
          "name": "account",
          "type": "address"
        },
        {
          "indexed": true,
          "internalType": "address",
          "name": "sender",
          "type": "address"
        }
      ],
      "name": "RoleGranted",
      "type": "event"
    },
    {
      "anonymous": false,
      "inputs": [
        {
          "indexed": true,
          "internalType": "bytes32",
          "name": "role",
          "type": "bytes32"
        },
        {
          "indexed": true,
          "internalType": "address",
          "name": "account",
          "type": "address"
        },
        {
          "indexed": true,
          "internalType": "address",
          "name": "sender",
          "type": "address"
        }
      ],
      "name": "RoleRevoked",
      "type": "event"
    },
    {
      "anonymous": false,
      "inputs": [
        {
          "indexed": true,
          "internalType": "address",
          "name": "from",
          "type": "address"
        },
        {
          "indexed": true,
          "internalType": "address",
          "name": "to",
          "type": "address"
        },
        {
          "indexed": true,
          "internalType": "uint256",
          "name": "tokenId",
          "type": "uint256"
        }
      ],
      "name": "Transfer",
      "type": "event"
    },
    {
      "inputs": [],
      "name": "DEFAULT_ADMIN_ROLE",
      "outputs": [
        {
          "internalType": "bytes32",
          "name": "",
          "type": "bytes32"
        }
      ],
      "stateMutability": "view",
      "type": "function"
    },
    {
      "inputs": [
        {
          "internalType": "address",
          "name": "to",
          "type": "address"
        },
        {
          "internalType": "uint256",
          "name": "tokenId",
          "type": "uint256"
        }
      ],
      "name": "approve",
      "outputs": [],
      "stateMutability": "nonpayable",
      "type": "function"
    },
    {
      "inputs": [
        {
          "internalType": "address",
          "name": "owner",
          "type": "address"
        }
      ],
      "name": "balanceOf",
      "outputs": [
        {
          "internalType": "uint256",
          "name": "",
          "type": "uint256"
        }
      ],
      "stateMutability": "view",
      "type": "function"
    },
    {
      "inputs": [
        {
          "internalType": "uint256",
          "name": "tokenId",
          "type": "uint256"
        }
      ],
      "name": "getApproved",
      "outputs": [
        {
          "internalType": "address",
          "name": "",
          "type": "address"
        }
      ],
      "stateMutability": "view",
      "type": "function"
    },
    {
      "inputs": [
        {
          "internalType": "bytes32",
          "name": "role",
          "type": "bytes32"
        }
      ],
      "name": "getRoleAdmin",
      "outputs": [
        {
          "internalType": "bytes32",
          "name": "",
          "type": "bytes32"
        }
      ],
      "stateMutability": "view",
      "type": "function"
    },
    {
      "inputs": [
        {
          "internalType": "bytes32",
          "name": "role",
          "type": "bytes32"
        },
        {
          "internalType": "address",
          "name": "account",
          "type": "address"
        }
      ],
      "name": "grantRole",
      "outputs": [],
      "stateMutability": "nonpayable",
      "type": "function"
    },
    {
      "inputs": [
        {
          "internalType": "bytes32",
          "name": "role",
          "type": "bytes32"
        },
        {
          "internalType": "address",
          "name": "account",
          "type": "address"
        }
      ],
      "name": "hasRole",
      "outputs": [
        {
          "internalType": "bool",
          "name": "",
          "type": "bool"
        }
      ],
      "stateMutability": "view",
      "type": "function"
    },
    {
      "inputs": [
        {
          "internalType": "string",
          "name": "name",
          "type": "string"
        },
        {
          "internalType": "string",
          "name": "symbol",
          "type": "string"
        },
        {
          "internalType": "string",
          "name": "baseTokenURI",
          "type": "string"
        }
      ],
      "name": "initialize",
      "outputs": [],
      "stateMutability": "nonpayable",
      "type": "function"
    },
    {
      "inputs": [
        {
          "internalType": "address",
          "name": "owner",
          "type": "address"
        },
        {
          "internalType": "address",
          "name": "operator",
          "type": "address"
        }
      ],
      "name": "isApprovedForAll",
      "outputs": [
        {
          "internalType": "bool",
          "name": "",
          "type": "bool"
        }
      ],
      "stateMutability": "view",
      "type": "function"
    },
    {
      "inputs": [
        {
          "internalType": "uint256",
          "name": "_tokenId",
          "type": "uint256"
        }
      ],
      "name": "isRedeemed",
      "outputs": [
        {
          "internalType": "bool",
          "name": "",
          "type": "bool"
        }
      ],
      "stateMutability": "view",
      "type": "function"
    },
    {
      "inputs": [
        {
          "internalType": "uint256",
          "name": "tokenId",
          "type": "uint256"
        },
        {
          "internalType": "address",
          "name": "redeemer",
          "type": "address"
        }
      ],
      "name": "isRedeemedBy",
      "outputs": [
        {
          "internalType": "bool",
          "name": "",
          "type": "bool"
        }
      ],
      "stateMutability": "view",
      "type": "function"
    },
    {
      "inputs": [
        {
          "internalType": "address",
          "name": "to",
          "type": "address"
        },
        {
          "internalType": "uint256",
          "name": "tokenId",
          "type": "uint256"
        }
      ],
      "name": "mint",
      "outputs": [],
      "stateMutability": "nonpayable",
      "type": "function"
    },
    {
      "inputs": [
        {
          "internalType": "address[]",
          "name": "tos",
          "type": "address[]"
        },
        {
          "internalType": "uint256[]",
          "name": "tokenIds",
          "type": "uint256[]"
        }
      ],
      "name": "mintBatch",
      "outputs": [],
      "stateMutability": "nonpayable",
      "type": "function"
    },
    {
      "inputs": [],
      "name": "name",
      "outputs": [
        {
          "internalType": "string",
          "name": "",
          "type": "string"
        }
      ],
      "stateMutability": "view",
      "type": "function"
    },
    {
      "inputs": [
        {
          "internalType": "uint256",
          "name": "tokenId",
          "type": "uint256"
        }
      ],
      "name": "ownerOf",
      "outputs": [
        {
          "internalType": "address",
          "name": "",
          "type": "address"
        }
      ],
      "stateMutability": "view",
      "type": "function"
    },
    {
      "inputs": [
        {
          "internalType": "uint256",
          "name": "_tokenId",
          "type": "uint256"
        }
      ],
      "name": "redeem",
      "outputs": [],
      "stateMutability": "nonpayable",
      "type": "function"
    },
    {
      "inputs": [
        {
          "internalType": "bytes32",
          "name": "role",
          "type": "bytes32"
        },
        {
          "internalType": "address",
          "name": "account",
          "type": "address"
        }
      ],
      "name": "renounceRole",
      "outputs": [],
      "stateMutability": "nonpayable",
      "type": "function"
    },
    {
      "inputs": [
        {
          "internalType": "bytes32",
          "name": "role",
          "type": "bytes32"
        },
        {
          "internalType": "address",
          "name": "account",
          "type": "address"
        }
      ],
      "name": "revokeRole",
      "outputs": [],
      "stateMutability": "nonpayable",
      "type": "function"
    },
    {
      "inputs": [
        {
          "internalType": "address",
          "name": "from",
          "type": "address"
        },
        {
          "internalType": "address",
          "name": "to",
          "type": "address"
        },
        {
          "internalType": "uint256",
          "name": "tokenId",
          "type": "uint256"
        }
      ],
      "name": "safeTransferFrom",
      "outputs": [],
      "stateMutability": "nonpayable",
      "type": "function"
    },
    {
      "inputs": [
        {
          "internalType": "address",
          "name": "from",
          "type": "address"
        },
        {
          "internalType": "address",
          "name": "to",
          "type": "address"
        },
        {
          "internalType": "uint256",
          "name": "tokenId",
          "type": "uint256"
        },
        {
          "internalType": "bytes",
          "name": "_data",
          "type": "bytes"
        }
      ],
      "name": "safeTransferFrom",
      "outputs": [],
      "stateMutability": "nonpayable",
      "type": "function"
    },
    {
      "inputs": [
        {
          "internalType": "address",
          "name": "operator",
          "type": "address"
        },
        {
          "internalType": "bool",
          "name": "approved",
          "type": "bool"
        }
      ],
      "name": "setApprovalForAll",
      "outputs": [],
      "stateMutability": "nonpayable",
      "type": "function"
    },
    {
      "inputs": [
        {
          "internalType": "bytes4",
          "name": "interfaceId",
          "type": "bytes4"
        }
      ],
      "name": "supportsInterface",
      "outputs": [
        {
          "internalType": "bool",
          "name": "",
          "type": "bool"
        }
      ],
      "stateMutability": "view",
      "type": "function"
    },
    {
      "inputs": [],
      "name": "symbol",
      "outputs": [
        {
          "internalType": "string",
          "name": "",
          "type": "string"
        }
      ],
      "stateMutability": "view",
      "type": "function"
    },
    {
      "inputs": [
        {
          "internalType": "uint256",
          "name": "tokenId",
          "type": "uint256"
        }
      ],
      "name": "tokenURI",
      "outputs": [
        {
          "internalType": "string",
          "name": "",
          "type": "string"
        }
      ],
      "stateMutability": "view",
      "type": "function"
    },
    {
      "inputs": [
        {
          "internalType": "address",
          "name": "from",
          "type": "address"
        },
        {
          "internalType": "address",
          "name": "to",
          "type": "address"
        },
        {
          "internalType": "uint256",
          "name": "tokenId",
          "type": "uint256"
        }
      ],
      "name": "transferFrom",
      "outputs": [],
      "stateMutability": "nonpayable",
      "type": "function"
    }
  ],
  "bytecode": "0x608060405234801561001057600080fd5b5061227a806100206000396000f3fe608060405234801561001057600080fd5b50600436106101735760003560e01c806370a08231116100de578063a6487c5311610097578063c87b56dd11610071578063c87b56dd14610325578063d547741f14610338578063db006a751461034b578063e985e9c51461035e57610173565b8063a6487c53146102ec578063b88d4fde146102ff578063c71679b51461031257610173565b806370a08231146102905780637c88e3d9146102a357806391d14854146102b657806395d89b41146102c9578063a217fddf146102d1578063a22cb465146102d957610173565b80632f2ff15d116101305780632f2ff15d1461021e57806332d33cd01461023157806336568abe1461024457806340c10f191461025757806342842e0e1461026a5780636352211e1461027d57610173565b806301ffc9a71461017857806306fdde03146101a1578063081812fc146101b6578063095ea7b3146101d657806323b872dd146101eb578063248a9ca3146101fe575b600080fd5b61018b6101863660046119ce565b610371565b6040516101989190611bab565b60405180910390f35b6101a9610384565b6040516101989190611bbf565b6101c96101c4366004611994565b610416565b6040516101989190611b5a565b6101e96101e43660046118ad565b610462565b005b6101e96101f93660046117bf565b6104fa565b61021161020c366004611994565b610532565b6040516101989190611bb6565b6101e961022c3660046119ac565b610547565b61018b61023f366004611994565b61056b565b6101e96102523660046119ac565b610588565b6101e96102653660046118ad565b6105ce565b6101e96102783660046117bf565b6105e6565b6101c961028b366004611994565b610601565b61021161029e366004611773565b610636565b6101e96102b13660046118d6565b61067a565b61018b6102c43660046119ac565b610712565b6101a961073d565b61021161074c565b6101e96102e7366004611873565b610751565b6101e96102fa366004611a06565b61081f565b6101e961030d3660046117fa565b6108a1565b61018b6103203660046119ac565b6108da565b6101a9610333366004611994565b6108fb565b6101e96103463660046119ac565b61097e565b6101e9610359366004611994565b61099d565b61018b61036c36600461178d565b6109f5565b600061037c82610a23565b90505b919050565b60606097805461039390612182565b80601f01602080910402602001604051908101604052809291908181526020018280546103bf90612182565b801561040c5780601f106103e15761010080835404028352916020019161040c565b820191906000526020600020905b8154815290600101906020018083116103ef57829003601f168201915b5050505050905090565b600061042182610a63565b6104465760405162461bcd60e51b815260040161043d90611eca565b60405180910390fd5b506000908152609b60205260409020546001600160a01b031690565b600061046d82610601565b9050806001600160a01b0316836001600160a01b031614156104a15760405162461bcd60e51b815260040161043d90611fae565b806001600160a01b03166104b3610a80565b6001600160a01b031614806104cf57506104cf8161036c610a80565b6104eb5760405162461bcd60e51b815260040161043d90611d57565b6104f58383610a84565b505050565b61050b610505610a80565b82610af2565b6105275760405162461bcd60e51b815260040161043d90611fef565b6104f5838383610b77565b60009081526065602052604090206001015490565b61055082610532565b6105618161055c610a80565b610ca4565b6104f58383610d08565b600090815260c960205260409020546001600160a01b0316151590565b610590610a80565b6001600160a01b0316816001600160a01b0316146105c05760405162461bcd60e51b815260040161043d90612040565b6105ca8282610d8f565b5050565b60006105dc8161055c610a80565b6104f58383610e14565b6104f5838383604051806020016040528060008152506108a1565b6000818152609960205260408120546001600160a01b03168061037c5760405162461bcd60e51b815260040161043d90611dfe565b60006001600160a01b03821661065e5760405162461bcd60e51b815260040161043d90611db4565b506001600160a01b03166000908152609a602052604090205490565b60006106888161055c610a80565b815183511461069657600080fd5b60005b835181101561070c576106fa8482815181106106c557634e487b7160e01b600052603260045260246000fd5b60200260200101518483815181106106ed57634e487b7160e01b600052603260045260246000fd5b6020026020010151610e14565b80610704816121bd565b915050610699565b50505050565b60009182526065602090815260408084206001600160a01b0393909316845291905290205460ff1690565b60606098805461039390612182565b600081565b610759610a80565b6001600160a01b0316826001600160a01b0316141561078a5760405162461bcd60e51b815260040161043d90611cd4565b80609c6000610797610a80565b6001600160a01b03908116825260208083019390935260409182016000908120918716808252919093529120805460ff1916921515929092179091556107db610a80565b6001600160a01b03167f17307eab39ab6107e8899845ad3d59bd9653f200f220920489ca2b5937696c31836040516108139190611bab565b60405180910390a35050565b600054610100900460ff1680610838575060005460ff16155b6108545760405162461bcd60e51b815260040161043d90611e47565b600054610100900460ff1615801561087f576000805460ff1961ff0019909116610100171660011790555b61088a848484610ef3565b801561070c576000805461ff001916905550505050565b6108b26108ac610a80565b83610af2565b6108ce5760405162461bcd60e51b815260040161043d90611fef565b61070c84848484610f7e565b600091825260c96020526040909120546001600160a01b0391821691161490565b606061090682610a63565b6109225760405162461bcd60e51b815260040161043d90611f5f565b600061092c610fb1565b9050600081511161094c5760405180602001604052806000815250610977565b8061095684610fc0565b604051602001610967929190611ab6565b6040516020818303038152906040525b9392505050565b61098782610532565b6109938161055c610a80565b6104f58383610d8f565b600081815260ca60205260409020546001600160a01b031633146109c057600080fd5b600090815260c96020908152604080832080546001600160a01b0319908116331790915560ca90925290912080549091169055565b6001600160a01b039182166000908152609c6020908152604080832093909416825291909152205460ff1690565b60006001600160e01b031982166380ac58cd60e01b1480610a5457506001600160e01b03198216635b5e139f60e01b145b8061037c575061037c826110db565b6000908152609960205260409020546001600160a01b0316151590565b3390565b6000818152609b6020526040902080546001600160a01b0319166001600160a01b0384169081179091558190610ab982610601565b6001600160a01b03167f8c5be1e5ebec7d5bd14f71427d1e84f3dd0314c0f7b2291e5b200ac8c7c3b92560405160405180910390a45050565b6000610afd82610a63565b610b195760405162461bcd60e51b815260040161043d90611d0b565b6000610b2483610601565b9050806001600160a01b0316846001600160a01b03161480610b5f5750836001600160a01b0316610b5484610416565b6001600160a01b0316145b80610b6f5750610b6f81856109f5565b949350505050565b826001600160a01b0316610b8a82610601565b6001600160a01b031614610bb05760405162461bcd60e51b815260040161043d90611f16565b6001600160a01b038216610bd65760405162461bcd60e51b815260040161043d90611c90565b610be1838383611100565b610bec600082610a84565b6001600160a01b0383166000908152609a60205260408120805460019290610c15908490612128565b90915550506001600160a01b0382166000908152609a60205260408120805460019290610c439084906120dd565b909155505060008181526099602052604080822080546001600160a01b0319166001600160a01b0386811691821790925591518493918716917fddf252ad1be2c89b69c2b068fc378daa952ba7f163c4a11628f55a4df523b3ef91a4505050565b610cae8282610712565b6105ca57610cc6816001600160a01b0316601461113c565b610cd183602061113c565b604051602001610ce2929190611ae5565b60408051601f198184030181529082905262461bcd60e51b825261043d91600401611bbf565b610d128282610712565b6105ca5760008281526065602090815260408083206001600160a01b03851684529091529020805460ff19166001179055610d4b610a80565b6001600160a01b0316816001600160a01b0316837f2f8788117e7eff1d82e926ec794901d17c78024a50270940304540a733656f0d60405160405180910390a45050565b610d998282610712565b156105ca5760008281526065602090815260408083206001600160a01b03851684529091529020805460ff19169055610dd0610a80565b6001600160a01b0316816001600160a01b0316837ff6391f5c32d9c69d2a47ea670b442974b53935d1edc7fd64eb21e047a839171b60405160405180910390a45050565b6001600160a01b038216610e3a5760405162461bcd60e51b815260040161043d90611e95565b610e4381610a63565b15610e605760405162461bcd60e51b815260040161043d90611c59565b610e6c60008383611100565b6001600160a01b0382166000908152609a60205260408120805460019290610e959084906120dd565b909155505060008181526099602052604080822080546001600160a01b0319166001600160a01b03861690811790915590518392907fddf252ad1be2c89b69c2b068fc378daa952ba7f163c4a11628f55a4df523b3ef908290a45050565b600054610100900460ff1680610f0c575060005460ff16155b610f285760405162461bcd60e51b815260040161043d90611e47565b600054610100900460ff16158015610f53576000805460ff1961ff0019909116610100171660011790555b610f5b6112ee565b610f636112ee565b610f6b6112ee565b610f758484611363565b61088a82611401565b610f89848484610b77565b610f958484848461149c565b61070c5760405162461bcd60e51b815260040161043d90611c07565b606060cb805461039390612182565b606081610fe557506040805180820190915260018152600360fc1b602082015261037f565b8160005b811561100f5780610ff9816121bd565b91506110089050600a836120f5565b9150610fe9565b60008167ffffffffffffffff81111561103857634e487b7160e01b600052604160045260246000fd5b6040519080825280601f01601f191660200182016040528015611062576020820181803683370190505b5090505b8415610b6f57611077600183612128565b9150611084600a866121d8565b61108f9060306120dd565b60f81b8183815181106110b257634e487b7160e01b600052603260045260246000fd5b60200101906001600160f81b031916908160001a9053506110d4600a866120f5565b9450611066565b60006001600160e01b03198216637965db0b60e01b148061037c575061037c826115b7565b600081815260c96020526040902054819084906001600160a01b0380831691161461112a57600080fd5b6111358585856104f5565b5050505050565b6060600061114b836002612109565b6111569060026120dd565b67ffffffffffffffff81111561117c57634e487b7160e01b600052604160045260246000fd5b6040519080825280601f01601f1916602001820160405280156111a6576020820181803683370190505b509050600360fc1b816000815181106111cf57634e487b7160e01b600052603260045260246000fd5b60200101906001600160f81b031916908160001a905350600f60fb1b8160018151811061120c57634e487b7160e01b600052603260045260246000fd5b60200101906001600160f81b031916908160001a9053506000611230846002612109565b61123b9060016120dd565b90505b60018111156112cf576f181899199a1a9b1b9c1cb0b131b232b360811b85600f166010811061127d57634e487b7160e01b600052603260045260246000fd5b1a60f81b8282815181106112a157634e487b7160e01b600052603260045260246000fd5b60200101906001600160f81b031916908160001a90535060049490941c936112c88161216b565b905061123e565b5083156109775760405162461bcd60e51b815260040161043d90611bd2565b600054610100900460ff1680611307575060005460ff16155b6113235760405162461bcd60e51b815260040161043d90611e47565b600054610100900460ff1615801561134e576000805460ff1961ff0019909116610100171660011790555b8015611360576000805461ff00191690555b50565b600054610100900460ff168061137c575060005460ff16155b6113985760405162461bcd60e51b815260040161043d90611e47565b600054610100900460ff161580156113c3576000805460ff1961ff0019909116610100171660011790555b82516113d69060979060208601906115e0565b5081516113ea9060989060208501906115e0565b5080156104f5576000805461ff0019169055505050565b600054610100900460ff168061141a575060005460ff16155b6114365760405162461bcd60e51b815260040161043d90611e47565b600054610100900460ff16158015611461576000805460ff1961ff0019909116610100171660011790555b81516114749060cb9060208501906115e0565b506114876000611482610a80565b6115d0565b80156105ca576000805461ff00191690555050565b60006114b0846001600160a01b03166115da565b156115ac57836001600160a01b031663150b7a026114cc610a80565b8786866040518563ffffffff1660e01b81526004016114ee9493929190611b6e565b602060405180830381600087803b15801561150857600080fd5b505af1925050508015611538575060408051601f3d908101601f19168201909252611535918101906119ea565b60015b611592573d808015611566576040519150601f19603f3d011682016040523d82523d6000602084013e61156b565b606091505b50805161158a5760405162461bcd60e51b815260040161043d90611c07565b805181602001fd5b6001600160e01b031916630a85bd0160e11b149050610b6f565b506001949350505050565b6001600160e01b031981166301ffc9a760e01b14919050565b6105ca8282610d08565b3b151590565b8280546115ec90612182565b90600052602060002090601f01602090048101928261160e5760008555611654565b82601f1061162757805160ff1916838001178555611654565b82800160010185558215611654579182015b82811115611654578251825591602001919060010190611639565b50611660929150611664565b5090565b5b808211156116605760008155600101611665565b600067ffffffffffffffff83111561169357611693612218565b6116a6601f8401601f191660200161208f565b90508281528383830111156116ba57600080fd5b828260208301376000602084830101529392505050565b80356001600160a01b038116811461037f57600080fd5b600082601f8301126116f8578081fd5b8135602061170d611708836120b9565b61208f565b8281528181019085830183850287018401881015611729578586fd5b855b858110156117475781358452928401929084019060010161172b565b5090979650505050505050565b600082601f830112611764578081fd5b61097783833560208501611679565b600060208284031215611784578081fd5b610977826116d1565b6000806040838503121561179f578081fd5b6117a8836116d1565b91506117b6602084016116d1565b90509250929050565b6000806000606084860312156117d3578081fd5b6117dc846116d1565b92506117ea602085016116d1565b9150604084013590509250925092565b6000806000806080858703121561180f578081fd5b611818856116d1565b9350611826602086016116d1565b925060408501359150606085013567ffffffffffffffff811115611848578182fd5b8501601f81018713611858578182fd5b61186787823560208401611679565b91505092959194509250565b60008060408385031215611885578182fd5b61188e836116d1565b9150602083013580151581146118a2578182fd5b809150509250929050565b600080604083850312156118bf578182fd5b6118c8836116d1565b946020939093013593505050565b600080604083850312156118e8578182fd5b823567ffffffffffffffff808211156118ff578384fd5b818501915085601f830112611912578384fd5b81356020611922611708836120b9565b82815281810190858301838502870184018b101561193e578889fd5b8896505b8487101561196757611953816116d1565b835260019690960195918301918301611942565b509650508601359250508082111561197d578283fd5b5061198a858286016116e8565b9150509250929050565b6000602082840312156119a5578081fd5b5035919050565b600080604083850312156119be578182fd5b823591506117b6602084016116d1565b6000602082840312156119df578081fd5b81356109778161222e565b6000602082840312156119fb578081fd5b81516109778161222e565b600080600060608486031215611a1a578081fd5b833567ffffffffffffffff80821115611a31578283fd5b611a3d87838801611754565b94506020860135915080821115611a52578283fd5b611a5e87838801611754565b93506040860135915080821115611a73578283fd5b50611a8086828701611754565b9150509250925092565b60008151808452611aa281602086016020860161213f565b601f01601f19169290920160200192915050565b60008351611ac881846020880161213f565b835190830190611adc81836020880161213f565b01949350505050565b60007f416363657373436f6e74726f6c3a206163636f756e742000000000000000000082528351611b1d81601785016020880161213f565b7001034b99036b4b9b9b4b733903937b6329607d1b6017918401918201528351611b4e81602884016020880161213f565b01602801949350505050565b6001600160a01b0391909116815260200190565b6001600160a01b0385811682528416602082015260408101839052608060608201819052600090611ba190830184611a8a565b9695505050505050565b901515815260200190565b90815260200190565b6000602082526109776020830184611a8a565b6020808252818101527f537472696e67733a20686578206c656e67746820696e73756666696369656e74604082015260600190565b60208082526032908201527f4552433732313a207472616e7366657220746f206e6f6e20455243373231526560408201527131b2b4bb32b91034b6b83632b6b2b73a32b960711b606082015260800190565b6020808252601c908201527f4552433732313a20746f6b656e20616c7265616479206d696e74656400000000604082015260600190565b60208082526024908201527f4552433732313a207472616e7366657220746f20746865207a65726f206164646040820152637265737360e01b606082015260800190565b60208082526019908201527f4552433732313a20617070726f766520746f2063616c6c657200000000000000604082015260600190565b6020808252602c908201527f4552433732313a206f70657261746f7220717565727920666f72206e6f6e657860408201526b34b9ba32b73a103a37b5b2b760a11b606082015260800190565b60208082526038908201527f4552433732313a20617070726f76652063616c6c6572206973206e6f74206f7760408201527f6e6572206e6f7220617070726f76656420666f7220616c6c0000000000000000606082015260800190565b6020808252602a908201527f4552433732313a2062616c616e636520717565727920666f7220746865207a65604082015269726f206164647265737360b01b606082015260800190565b60208082526029908201527f4552433732313a206f776e657220717565727920666f72206e6f6e657869737460408201526832b73a103a37b5b2b760b91b606082015260800190565b6020808252602e908201527f496e697469616c697a61626c653a20636f6e747261637420697320616c72656160408201526d191e481a5b9a5d1a585b1a5e995960921b606082015260800190565b6020808252818101527f4552433732313a206d696e7420746f20746865207a65726f2061646472657373604082015260600190565b6020808252602c908201527f4552433732313a20617070726f76656420717565727920666f72206e6f6e657860408201526b34b9ba32b73a103a37b5b2b760a11b606082015260800190565b60208082526029908201527f4552433732313a207472616e73666572206f6620746f6b656e2074686174206960408201526839903737ba1037bbb760b91b606082015260800190565b6020808252602f908201527f4552433732314d657461646174613a2055524920717565727920666f72206e6f60408201526e3732bc34b9ba32b73a103a37b5b2b760891b606082015260800190565b60208082526021908201527f4552433732313a20617070726f76616c20746f2063757272656e74206f776e656040820152603960f91b606082015260800190565b60208082526031908201527f4552433732313a207472616e736665722063616c6c6572206973206e6f74206f6040820152701ddb995c881b9bdc88185c1c1c9bdd9959607a1b606082015260800190565b6020808252602f908201527f416363657373436f6e74726f6c3a2063616e206f6e6c792072656e6f756e636560408201526e103937b632b9903337b91039b2b63360891b606082015260800190565b60405181810167ffffffffffffffff811182821017156120b1576120b1612218565b604052919050565b600067ffffffffffffffff8211156120d3576120d3612218565b5060209081020190565b600082198211156120f0576120f06121ec565b500190565b60008261210457612104612202565b500490565b6000816000190483118215151615612123576121236121ec565b500290565b60008282101561213a5761213a6121ec565b500390565b60005b8381101561215a578181015183820152602001612142565b8381111561070c5750506000910152565b60008161217a5761217a6121ec565b506000190190565b60028104600182168061219657607f821691505b602082108114156121b757634e487b7160e01b600052602260045260246000fd5b50919050565b60006000198214156121d1576121d16121ec565b5060010190565b6000826121e7576121e7612202565b500690565b634e487b7160e01b600052601160045260246000fd5b634e487b7160e01b600052601260045260246000fd5b634e487b7160e01b600052604160045260246000fd5b6001600160e01b03198116811461136057600080fdfea26469706673582212207ce3e51ebf26c4bee010ade45dc37f395dd8858555d3c6ee76a8d82db8a4ce4764736f6c63430008000033",
  "linkReferences": {},
  "deployedLinkReferences": {}
}