{
  "_format": "hh-sol-artifact-1",
  "contractName": "Invite",
  "sourceName": "contracts/Invite.sol",
  "abi": [
    {
      "anonymous": false,
      "inputs": [
        {
          "indexed": true,
          "internalType": "address",
          "name": "owner",
          "type": "address"
        },
        {
          "indexed": true,
          "internalType": "address",
          "name": "approved",
          "type": "address"
        },
        {
          "indexed": true,
          "internalType": "uint256",
          "name": "tokenId",
          "type": "uint256"
        }
      ],
      "name": "Approval",
      "type": "event"
    },
    {
      "anonymous": false,
      "inputs": [
        {
          "indexed": true,
          "internalType": "address",
          "name": "owner",
          "type": "address"
        },
        {
          "indexed": true,
          "internalType": "address",
          "name": "operator",
          "type": "address"
        },
        {
          "indexed": false,
          "internalType": "bool",
          "name": "approved",
          "type": "bool"
        }
      ],
      "name": "ApprovalForAll",
      "type": "event"
    },
    {
      "anonymous": false,
      "inputs": [
        {
          "indexed": true,
          "internalType": "bytes32",
          "name": "role",
          "type": "bytes32"
        },
        {
          "indexed": true,
          "internalType": "bytes32",
          "name": "previousAdminRole",
          "type": "bytes32"
        },
        {
          "indexed": true,
          "internalType": "bytes32",
          "name": "newAdminRole",
          "type": "bytes32"
        }
      ],
      "name": "RoleAdminChanged",
      "type": "event"
    },
    {
      "anonymous": false,
      "inputs": [
        {
          "indexed": true,
          "internalType": "bytes32",
          "name": "role",
          "type": "bytes32"
        },
        {
          "indexed": true,
          "internalType": "address",
          "name": "account",
          "type": "address"
        },
        {
          "indexed": true,
          "internalType": "address",
          "name": "sender",
          "type": "address"
        }
      ],
      "name": "RoleGranted",
      "type": "event"
    },
    {
      "anonymous": false,
      "inputs": [
        {
          "indexed": true,
          "internalType": "bytes32",
          "name": "role",
          "type": "bytes32"
        },
        {
          "indexed": true,
          "internalType": "address",
          "name": "account",
          "type": "address"
        },
        {
          "indexed": true,
          "internalType": "address",
          "name": "sender",
          "type": "address"
        }
      ],
      "name": "RoleRevoked",
      "type": "event"
    },
    {
      "anonymous": false,
      "inputs": [
        {
          "indexed": true,
          "internalType": "address",
          "name": "from",
          "type": "address"
        },
        {
          "indexed": true,
          "internalType": "address",
          "name": "to",
          "type": "address"
        },
        {
          "indexed": true,
          "internalType": "uint256",
          "name": "tokenId",
          "type": "uint256"
        }
      ],
      "name": "Transfer",
      "type": "event"
    },
    {
      "inputs": [],
      "name": "DEFAULT_ADMIN_ROLE",
      "outputs": [
        {
          "internalType": "bytes32",
          "name": "",
          "type": "bytes32"
        }
      ],
      "stateMutability": "view",
      "type": "function"
    },
    {
      "inputs": [
        {
          "internalType": "address",
          "name": "to",
          "type": "address"
        },
        {
          "internalType": "uint256",
          "name": "tokenId",
          "type": "uint256"
        }
      ],
      "name": "approve",
      "outputs": [],
      "stateMutability": "nonpayable",
      "type": "function"
    },
    {
      "inputs": [
        {
          "internalType": "address",
          "name": "owner",
          "type": "address"
        }
      ],
      "name": "balanceOf",
      "outputs": [
        {
          "internalType": "uint256",
          "name": "",
          "type": "uint256"
        }
      ],
      "stateMutability": "view",
      "type": "function"
    },
    {
      "inputs": [
        {
          "internalType": "uint256",
          "name": "tokenId",
          "type": "uint256"
        }
      ],
      "name": "getApproved",
      "outputs": [
        {
          "internalType": "address",
          "name": "",
          "type": "address"
        }
      ],
      "stateMutability": "view",
      "type": "function"
    },
    {
      "inputs": [
        {
          "internalType": "bytes32",
          "name": "role",
          "type": "bytes32"
        }
      ],
      "name": "getRoleAdmin",
      "outputs": [
        {
          "internalType": "bytes32",
          "name": "",
          "type": "bytes32"
        }
      ],
      "stateMutability": "view",
      "type": "function"
    },
    {
      "inputs": [
        {
          "internalType": "bytes32",
          "name": "role",
          "type": "bytes32"
        },
        {
          "internalType": "address",
          "name": "account",
          "type": "address"
        }
      ],
      "name": "grantRole",
      "outputs": [],
      "stateMutability": "nonpayable",
      "type": "function"
    },
    {
      "inputs": [
        {
          "internalType": "bytes32",
          "name": "role",
          "type": "bytes32"
        },
        {
          "internalType": "address",
          "name": "account",
          "type": "address"
        }
      ],
      "name": "hasRole",
      "outputs": [
        {
          "internalType": "bool",
          "name": "",
          "type": "bool"
        }
      ],
      "stateMutability": "view",
      "type": "function"
    },
    {
      "inputs": [
        {
          "internalType": "string",
          "name": "name",
          "type": "string"
        },
        {
          "internalType": "string",
          "name": "symbol",
          "type": "string"
        },
        {
          "internalType": "string",
          "name": "baseTokenURI",
          "type": "string"
        }
      ],
      "name": "initialize",
      "outputs": [],
      "stateMutability": "nonpayable",
      "type": "function"
    },
    {
      "inputs": [
        {
          "internalType": "address",
          "name": "owner",
          "type": "address"
        },
        {
          "internalType": "address",
          "name": "operator",
          "type": "address"
        }
      ],
      "name": "isApprovedForAll",
      "outputs": [
        {
          "internalType": "bool",
          "name": "",
          "type": "bool"
        }
      ],
      "stateMutability": "view",
      "type": "function"
    },
    {
      "inputs": [
        {
          "internalType": "uint256",
          "name": "_tokenId",
          "type": "uint256"
        }
      ],
      "name": "isRedeemed",
      "outputs": [
        {
          "internalType": "bool",
          "name": "",
          "type": "bool"
        }
      ],
      "stateMutability": "view",
      "type": "function"
    },
    {
      "inputs": [
        {
          "internalType": "uint256",
          "name": "tokenId",
          "type": "uint256"
        },
        {
          "internalType": "address",
          "name": "redeemer",
          "type": "address"
        }
      ],
      "name": "isRedeemedBy",
      "outputs": [
        {
          "internalType": "bool",
          "name": "",
          "type": "bool"
        }
      ],
      "stateMutability": "view",
      "type": "function"
    },
    {
      "inputs": [
        {
          "internalType": "address",
          "name": "to",
          "type": "address"
        },
        {
          "internalType": "uint256",
          "name": "tokenId",
          "type": "uint256"
        }
      ],
      "name": "mint",
      "outputs": [],
      "stateMutability": "nonpayable",
      "type": "function"
    },
    {
      "inputs": [
        {
          "internalType": "address[]",
          "name": "tos",
          "type": "address[]"
        },
        {
          "internalType": "uint256[]",
          "name": "tokenIds",
          "type": "uint256[]"
        }
      ],
      "name": "mintBatch",
      "outputs": [],
      "stateMutability": "nonpayable",
      "type": "function"
    },
    {
      "inputs": [],
      "name": "name",
      "outputs": [
        {
          "internalType": "string",
          "name": "",
          "type": "string"
        }
      ],
      "stateMutability": "view",
      "type": "function"
    },
    {
      "inputs": [
        {
          "internalType": "uint256",
          "name": "tokenId",
          "type": "uint256"
        }
      ],
      "name": "ownerOf",
      "outputs": [
        {
          "internalType": "address",
          "name": "",
          "type": "address"
        }
      ],
      "stateMutability": "view",
      "type": "function"
    },
    {
      "inputs": [
        {
          "internalType": "uint256",
          "name": "_tokenId",
          "type": "uint256"
        }
      ],
      "name": "redeem",
      "outputs": [],
      "stateMutability": "nonpayable",
      "type": "function"
    },
    {
      "inputs": [
        {
          "internalType": "bytes32",
          "name": "role",
          "type": "bytes32"
        },
        {
          "internalType": "address",
          "name": "account",
          "type": "address"
        }
      ],
      "name": "renounceRole",
      "outputs": [],
      "stateMutability": "nonpayable",
      "type": "function"
    },
    {
      "inputs": [
        {
          "internalType": "bytes32",
          "name": "role",
          "type": "bytes32"
        },
        {
          "internalType": "address",
          "name": "account",
          "type": "address"
        }
      ],
      "name": "revokeRole",
      "outputs": [],
      "stateMutability": "nonpayable",
      "type": "function"
    },
    {
      "inputs": [
        {
          "internalType": "address",
          "name": "from",
          "type": "address"
        },
        {
          "internalType": "address",
          "name": "to",
          "type": "address"
        },
        {
          "internalType": "uint256",
          "name": "tokenId",
          "type": "uint256"
        }
      ],
      "name": "safeTransferFrom",
      "outputs": [],
      "stateMutability": "nonpayable",
      "type": "function"
    },
    {
      "inputs": [
        {
          "internalType": "address",
          "name": "from",
          "type": "address"
        },
        {
          "internalType": "address",
          "name": "to",
          "type": "address"
        },
        {
          "internalType": "uint256",
          "name": "tokenId",
          "type": "uint256"
        },
        {
          "internalType": "bytes",
          "name": "_data",
          "type": "bytes"
        }
      ],
      "name": "safeTransferFrom",
      "outputs": [],
      "stateMutability": "nonpayable",
      "type": "function"
    },
    {
      "inputs": [
        {
          "internalType": "address",
          "name": "operator",
          "type": "address"
        },
        {
          "internalType": "bool",
          "name": "approved",
          "type": "bool"
        }
      ],
      "name": "setApprovalForAll",
      "outputs": [],
      "stateMutability": "nonpayable",
      "type": "function"
    },
    {
      "inputs": [
        {
          "internalType": "bytes4",
          "name": "interfaceId",
          "type": "bytes4"
        }
      ],
      "name": "supportsInterface",
      "outputs": [
        {
          "internalType": "bool",
          "name": "",
          "type": "bool"
        }
      ],
      "stateMutability": "view",
      "type": "function"
    },
    {
      "inputs": [],
      "name": "symbol",
      "outputs": [
        {
          "internalType": "string",
          "name": "",
          "type": "string"
        }
      ],
      "stateMutability": "view",
      "type": "function"
    },
    {
      "inputs": [
        {
          "internalType": "uint256",
          "name": "tokenId",
          "type": "uint256"
        }
      ],
      "name": "tokenURI",
      "outputs": [
        {
          "internalType": "string",
          "name": "",
          "type": "string"
        }
      ],
      "stateMutability": "view",
      "type": "function"
    },
    {
      "inputs": [
        {
          "internalType": "address",
          "name": "from",
          "type": "address"
        },
        {
          "internalType": "address",
          "name": "to",
          "type": "address"
        },
        {
          "internalType": "uint256",
          "name": "tokenId",
          "type": "uint256"
        }
      ],
      "name": "transferFrom",
      "outputs": [],
      "stateMutability": "nonpayable",
      "type": "function"
    }
  ],
  "bytecode": "0x608060405234801561001057600080fd5b506122e7806100206000396000f3fe608060405234801561001057600080fd5b50600436106101735760003560e01c806370a08231116100de578063a6487c5311610097578063c87b56dd11610071578063c87b56dd14610325578063d547741f14610338578063db006a751461034b578063e985e9c51461035e57610173565b8063a6487c53146102ec578063b88d4fde146102ff578063c71679b51461031257610173565b806370a08231146102905780637c88e3d9146102a357806391d14854146102b657806395d89b41146102c9578063a217fddf146102d1578063a22cb465146102d957610173565b80632f2ff15d116101305780632f2ff15d1461021e57806332d33cd01461023157806336568abe1461024457806340c10f191461025757806342842e0e1461026a5780636352211e1461027d57610173565b806301ffc9a71461017857806306fdde03146101a1578063081812fc146101b6578063095ea7b3146101d657806323b872dd146101eb578063248a9ca3146101fe575b600080fd5b61018b6101863660046119ea565b610371565b6040516101989190611bc7565b60405180910390f35b6101a9610384565b6040516101989190611bdb565b6101c96101c43660046119b0565b610416565b6040516101989190611b76565b6101e96101e43660046118c9565b610462565b005b6101e96101f93660046117db565b6104fa565b61021161020c3660046119b0565b610532565b6040516101989190611bd2565b6101e961022c3660046119c8565b610547565b61018b61023f3660046119b0565b61056b565b6101e96102523660046119c8565b610588565b6101e96102653660046118c9565b6105ce565b6101e96102783660046117db565b6105e6565b6101c961028b3660046119b0565b610601565b61021161029e36600461178f565b610636565b6101e96102b13660046118f2565b61067a565b61018b6102c43660046119c8565b610712565b6101a961073d565b61021161074c565b6101e96102e736600461188f565b610751565b6101e96102fa366004611a22565b61081f565b6101e961030d366004611816565b6108a1565b61018b6103203660046119c8565b6108da565b6101a96103333660046119b0565b6108fb565b6101e96103463660046119c8565b61097e565b6101e96103593660046119b0565b61099d565b61018b61036c3660046117a9565b6109d0565b600061037c826109fe565b90505b919050565b606060978054610393906121ef565b80601f01602080910402602001604051908101604052809291908181526020018280546103bf906121ef565b801561040c5780601f106103e15761010080835404028352916020019161040c565b820191906000526020600020905b8154815290600101906020018083116103ef57829003601f168201915b5050505050905090565b600061042182610a3e565b6104465760405162461bcd60e51b815260040161043d90611f37565b60405180910390fd5b506000908152609b60205260409020546001600160a01b031690565b600061046d82610601565b9050806001600160a01b0316836001600160a01b031614156104a15760405162461bcd60e51b815260040161043d9061201b565b806001600160a01b03166104b3610a5b565b6001600160a01b031614806104cf57506104cf8161036c610a5b565b6104eb5760405162461bcd60e51b815260040161043d90611d73565b6104f58383610a5f565b505050565b61050b610505610a5b565b82610acd565b6105275760405162461bcd60e51b815260040161043d9061205c565b6104f5838383610b52565b60009081526065602052604090206001015490565b61055082610532565b6105618161055c610a5b565b610c7f565b6104f58383610ce3565b600090815260c960205260409020546001600160a01b0316151590565b610590610a5b565b6001600160a01b0316816001600160a01b0316146105c05760405162461bcd60e51b815260040161043d906120ad565b6105ca8282610d6a565b5050565b60006105dc8161055c610a5b565b6104f58383610def565b6104f5838383604051806020016040528060008152506108a1565b6000818152609960205260408120546001600160a01b03168061037c5760405162461bcd60e51b815260040161043d90611e6b565b60006001600160a01b03821661065e5760405162461bcd60e51b815260040161043d90611e21565b506001600160a01b03166000908152609a602052604090205490565b60006106888161055c610a5b565b815183511461069657600080fd5b60005b835181101561070c576106fa8482815181106106c557634e487b7160e01b600052603260045260246000fd5b60200260200101518483815181106106ed57634e487b7160e01b600052603260045260246000fd5b6020026020010151610def565b806107048161222a565b915050610699565b50505050565b60009182526065602090815260408084206001600160a01b0393909316845291905290205460ff1690565b606060988054610393906121ef565b600081565b610759610a5b565b6001600160a01b0316826001600160a01b0316141561078a5760405162461bcd60e51b815260040161043d90611cf0565b80609c6000610797610a5b565b6001600160a01b03908116825260208083019390935260409182016000908120918716808252919093529120805460ff1916921515929092179091556107db610a5b565b6001600160a01b03167f17307eab39ab6107e8899845ad3d59bd9653f200f220920489ca2b5937696c31836040516108139190611bc7565b60405180910390a35050565b600054610100900460ff1680610838575060005460ff16155b6108545760405162461bcd60e51b815260040161043d90611eb4565b600054610100900460ff1615801561087f576000805460ff1961ff0019909116610100171660011790555b61088a848484610ece565b801561070c576000805461ff001916905550505050565b6108b26108ac610a5b565b83610acd565b6108ce5760405162461bcd60e51b815260040161043d9061205c565b61070c84848484610f59565b600091825260c96020526040909120546001600160a01b0391821691161490565b606061090682610a3e565b6109225760405162461bcd60e51b815260040161043d90611fcc565b600061092c610f8c565b9050600081511161094c5760405180602001604052806000815250610977565b8061095684610f9b565b604051602001610967929190611ad2565b6040516020818303038152906040525b9392505050565b61098782610532565b6109938161055c610a5b565b6104f58383610d6a565b6109a8610505610a5b565b6109c45760405162461bcd60e51b815260040161043d90611dd0565b6109cd816110b6565b50565b6001600160a01b039182166000908152609c6020908152604080832093909416825291909152205460ff1690565b60006001600160e01b031982166380ac58cd60e01b1480610a2f57506001600160e01b03198216635b5e139f60e01b145b8061037c575061037c826110f8565b6000908152609960205260409020546001600160a01b0316151590565b3390565b6000818152609b6020526040902080546001600160a01b0319166001600160a01b0384169081179091558190610a9482610601565b6001600160a01b03167f8c5be1e5ebec7d5bd14f71427d1e84f3dd0314c0f7b2291e5b200ac8c7c3b92560405160405180910390a45050565b6000610ad882610a3e565b610af45760405162461bcd60e51b815260040161043d90611d27565b6000610aff83610601565b9050806001600160a01b0316846001600160a01b03161480610b3a5750836001600160a01b0316610b2f84610416565b6001600160a01b0316145b80610b4a5750610b4a81856109d0565b949350505050565b826001600160a01b0316610b6582610601565b6001600160a01b031614610b8b5760405162461bcd60e51b815260040161043d90611f83565b6001600160a01b038216610bb15760405162461bcd60e51b815260040161043d90611cac565b610bbc83838361111d565b610bc7600082610a5f565b6001600160a01b0383166000908152609a60205260408120805460019290610bf0908490612195565b90915550506001600160a01b0382166000908152609a60205260408120805460019290610c1e90849061214a565b909155505060008181526099602052604080822080546001600160a01b0319166001600160a01b0386811691821790925591518493918716917fddf252ad1be2c89b69c2b068fc378daa952ba7f163c4a11628f55a4df523b3ef91a4505050565b610c898282610712565b6105ca57610ca1816001600160a01b03166014611159565b610cac836020611159565b604051602001610cbd929190611b01565b60408051601f198184030181529082905262461bcd60e51b825261043d91600401611bdb565b610ced8282610712565b6105ca5760008281526065602090815260408083206001600160a01b03851684529091529020805460ff19166001179055610d26610a5b565b6001600160a01b0316816001600160a01b0316837f2f8788117e7eff1d82e926ec794901d17c78024a50270940304540a733656f0d60405160405180910390a45050565b610d748282610712565b156105ca5760008281526065602090815260408083206001600160a01b03851684529091529020805460ff19169055610dab610a5b565b6001600160a01b0316816001600160a01b0316837ff6391f5c32d9c69d2a47ea670b442974b53935d1edc7fd64eb21e047a839171b60405160405180910390a45050565b6001600160a01b038216610e155760405162461bcd60e51b815260040161043d90611f02565b610e1e81610a3e565b15610e3b5760405162461bcd60e51b815260040161043d90611c75565b610e476000838361111d565b6001600160a01b0382166000908152609a60205260408120805460019290610e7090849061214a565b909155505060008181526099602052604080822080546001600160a01b0319166001600160a01b03861690811790915590518392907fddf252ad1be2c89b69c2b068fc378daa952ba7f163c4a11628f55a4df523b3ef908290a45050565b600054610100900460ff1680610ee7575060005460ff16155b610f035760405162461bcd60e51b815260040161043d90611eb4565b600054610100900460ff16158015610f2e576000805460ff1961ff0019909116610100171660011790555b610f3661130b565b610f3e61130b565b610f4661130b565b610f50848461137f565b61088a8261141d565b610f64848484610b52565b610f70848484846114b8565b61070c5760405162461bcd60e51b815260040161043d90611c23565b606060ca8054610393906121ef565b606081610fc057506040805180820190915260018152600360fc1b602082015261037f565b8160005b8115610fea5780610fd48161222a565b9150610fe39050600a83612162565b9150610fc4565b60008167ffffffffffffffff81111561101357634e487b7160e01b600052604160045260246000fd5b6040519080825280601f01601f19166020018201604052801561103d576020820181803683370190505b5090505b8415610b4a57611052600183612195565b915061105f600a86612245565b61106a90603061214a565b60f81b81838151811061108d57634e487b7160e01b600052603260045260246000fd5b60200101906001600160f81b031916908160001a9053506110af600a86612162565b9450611041565b600081815260c960205260409020546001600160a01b0316156110d857600080fd5b600090815260c96020526040902080546001600160a01b03191633179055565b60006001600160e01b03198216637965db0b60e01b148061037c575061037c826115d3565b600081815260c96020526040902054819084906001600160a01b0380831691161461114757600080fd5b6111528585856104f5565b5050505050565b60606000611168836002612176565b61117390600261214a565b67ffffffffffffffff81111561119957634e487b7160e01b600052604160045260246000fd5b6040519080825280601f01601f1916602001820160405280156111c3576020820181803683370190505b509050600360fc1b816000815181106111ec57634e487b7160e01b600052603260045260246000fd5b60200101906001600160f81b031916908160001a905350600f60fb1b8160018151811061122957634e487b7160e01b600052603260045260246000fd5b60200101906001600160f81b031916908160001a905350600061124d846002612176565b61125890600161214a565b90505b60018111156112ec576f181899199a1a9b1b9c1cb0b131b232b360811b85600f166010811061129a57634e487b7160e01b600052603260045260246000fd5b1a60f81b8282815181106112be57634e487b7160e01b600052603260045260246000fd5b60200101906001600160f81b031916908160001a90535060049490941c936112e5816121d8565b905061125b565b5083156109775760405162461bcd60e51b815260040161043d90611bee565b600054610100900460ff1680611324575060005460ff16155b6113405760405162461bcd60e51b815260040161043d90611eb4565b600054610100900460ff1615801561136b576000805460ff1961ff0019909116610100171660011790555b80156109cd576000805461ff001916905550565b600054610100900460ff1680611398575060005460ff16155b6113b45760405162461bcd60e51b815260040161043d90611eb4565b600054610100900460ff161580156113df576000805460ff1961ff0019909116610100171660011790555b82516113f29060979060208601906115fc565b5081516114069060989060208501906115fc565b5080156104f5576000805461ff0019169055505050565b600054610100900460ff1680611436575060005460ff16155b6114525760405162461bcd60e51b815260040161043d90611eb4565b600054610100900460ff1615801561147d576000805460ff1961ff0019909116610100171660011790555b81516114909060ca9060208501906115fc565b506114a3600061149e610a5b565b6115ec565b80156105ca576000805461ff00191690555050565b60006114cc846001600160a01b03166115f6565b156115c857836001600160a01b031663150b7a026114e8610a5b565b8786866040518563ffffffff1660e01b815260040161150a9493929190611b8a565b602060405180830381600087803b15801561152457600080fd5b505af1925050508015611554575060408051601f3d908101601f1916820190925261155191810190611a06565b60015b6115ae573d808015611582576040519150601f19603f3d011682016040523d82523d6000602084013e611587565b606091505b5080516115a65760405162461bcd60e51b815260040161043d90611c23565b805181602001fd5b6001600160e01b031916630a85bd0160e11b149050610b4a565b506001949350505050565b6001600160e01b031981166301ffc9a760e01b14919050565b6105ca8282610ce3565b3b151590565b828054611608906121ef565b90600052602060002090601f01602090048101928261162a5760008555611670565b82601f1061164357805160ff1916838001178555611670565b82800160010185558215611670579182015b82811115611670578251825591602001919060010190611655565b5061167c929150611680565b5090565b5b8082111561167c5760008155600101611681565b600067ffffffffffffffff8311156116af576116af612285565b6116c2601f8401601f19166020016120fc565b90508281528383830111156116d657600080fd5b828260208301376000602084830101529392505050565b80356001600160a01b038116811461037f57600080fd5b600082601f830112611714578081fd5b8135602061172961172483612126565b6120fc565b8281528181019085830183850287018401881015611745578586fd5b855b8581101561176357813584529284019290840190600101611747565b5090979650505050505050565b600082601f830112611780578081fd5b61097783833560208501611695565b6000602082840312156117a0578081fd5b610977826116ed565b600080604083850312156117bb578081fd5b6117c4836116ed565b91506117d2602084016116ed565b90509250929050565b6000806000606084860312156117ef578081fd5b6117f8846116ed565b9250611806602085016116ed565b9150604084013590509250925092565b6000806000806080858703121561182b578081fd5b611834856116ed565b9350611842602086016116ed565b925060408501359150606085013567ffffffffffffffff811115611864578182fd5b8501601f81018713611874578182fd5b61188387823560208401611695565b91505092959194509250565b600080604083850312156118a1578182fd5b6118aa836116ed565b9150602083013580151581146118be578182fd5b809150509250929050565b600080604083850312156118db578182fd5b6118e4836116ed565b946020939093013593505050565b60008060408385031215611904578182fd5b823567ffffffffffffffff8082111561191b578384fd5b818501915085601f83011261192e578384fd5b8135602061193e61172483612126565b82815281810190858301838502870184018b101561195a578889fd5b8896505b848710156119835761196f816116ed565b83526001969096019591830191830161195e565b5096505086013592505080821115611999578283fd5b506119a685828601611704565b9150509250929050565b6000602082840312156119c1578081fd5b5035919050565b600080604083850312156119da578182fd5b823591506117d2602084016116ed565b6000602082840312156119fb578081fd5b81356109778161229b565b600060208284031215611a17578081fd5b81516109778161229b565b600080600060608486031215611a36578081fd5b833567ffffffffffffffff80821115611a4d578283fd5b611a5987838801611770565b94506020860135915080821115611a6e578283fd5b611a7a87838801611770565b93506040860135915080821115611a8f578283fd5b50611a9c86828701611770565b9150509250925092565b60008151808452611abe8160208601602086016121ac565b601f01601f19169290920160200192915050565b60008351611ae48184602088016121ac565b835190830190611af88183602088016121ac565b01949350505050565b60007f416363657373436f6e74726f6c3a206163636f756e742000000000000000000082528351611b398160178501602088016121ac565b7001034b99036b4b9b9b4b733903937b6329607d1b6017918401918201528351611b6a8160288401602088016121ac565b01602801949350505050565b6001600160a01b0391909116815260200190565b6001600160a01b0385811682528416602082015260408101839052608060608201819052600090611bbd90830184611aa6565b9695505050505050565b901515815260200190565b90815260200190565b6000602082526109776020830184611aa6565b6020808252818101527f537472696e67733a20686578206c656e67746820696e73756666696369656e74604082015260600190565b60208082526032908201527f4552433732313a207472616e7366657220746f206e6f6e20455243373231526560408201527131b2b4bb32b91034b6b83632b6b2b73a32b960711b606082015260800190565b6020808252601c908201527f4552433732313a20746f6b656e20616c7265616479206d696e74656400000000604082015260600190565b60208082526024908201527f4552433732313a207472616e7366657220746f20746865207a65726f206164646040820152637265737360e01b606082015260800190565b60208082526019908201527f4552433732313a20617070726f766520746f2063616c6c657200000000000000604082015260600190565b6020808252602c908201527f4552433732313a206f70657261746f7220717565727920666f72206e6f6e657860408201526b34b9ba32b73a103a37b5b2b760a11b606082015260800190565b60208082526038908201527f4552433732313a20617070726f76652063616c6c6572206973206e6f74206f7760408201527f6e6572206e6f7220617070726f76656420666f7220616c6c0000000000000000606082015260800190565b60208082526031908201527f496e766974653a207472616e736665722063616c6c6572206973206e6f74206f6040820152701ddb995c881b9bdc88185c1c1c9bdd9959607a1b606082015260800190565b6020808252602a908201527f4552433732313a2062616c616e636520717565727920666f7220746865207a65604082015269726f206164647265737360b01b606082015260800190565b60208082526029908201527f4552433732313a206f776e657220717565727920666f72206e6f6e657869737460408201526832b73a103a37b5b2b760b91b606082015260800190565b6020808252602e908201527f496e697469616c697a61626c653a20636f6e747261637420697320616c72656160408201526d191e481a5b9a5d1a585b1a5e995960921b606082015260800190565b6020808252818101527f4552433732313a206d696e7420746f20746865207a65726f2061646472657373604082015260600190565b6020808252602c908201527f4552433732313a20617070726f76656420717565727920666f72206e6f6e657860408201526b34b9ba32b73a103a37b5b2b760a11b606082015260800190565b60208082526029908201527f4552433732313a207472616e73666572206f6620746f6b656e2074686174206960408201526839903737ba1037bbb760b91b606082015260800190565b6020808252602f908201527f4552433732314d657461646174613a2055524920717565727920666f72206e6f60408201526e3732bc34b9ba32b73a103a37b5b2b760891b606082015260800190565b60208082526021908201527f4552433732313a20617070726f76616c20746f2063757272656e74206f776e656040820152603960f91b606082015260800190565b60208082526031908201527f4552433732313a207472616e736665722063616c6c6572206973206e6f74206f6040820152701ddb995c881b9bdc88185c1c1c9bdd9959607a1b606082015260800190565b6020808252602f908201527f416363657373436f6e74726f6c3a2063616e206f6e6c792072656e6f756e636560408201526e103937b632b9903337b91039b2b63360891b606082015260800190565b60405181810167ffffffffffffffff8111828210171561211e5761211e612285565b604052919050565b600067ffffffffffffffff82111561214057612140612285565b5060209081020190565b6000821982111561215d5761215d612259565b500190565b6000826121715761217161226f565b500490565b600081600019048311821515161561219057612190612259565b500290565b6000828210156121a7576121a7612259565b500390565b60005b838110156121c75781810151838201526020016121af565b8381111561070c5750506000910152565b6000816121e7576121e7612259565b506000190190565b60028104600182168061220357607f821691505b6020821081141561222457634e487b7160e01b600052602260045260246000fd5b50919050565b600060001982141561223e5761223e612259565b5060010190565b6000826122545761225461226f565b500690565b634e487b7160e01b600052601160045260246000fd5b634e487b7160e01b600052601260045260246000fd5b634e487b7160e01b600052604160045260246000fd5b6001600160e01b0319811681146109cd57600080fdfea2646970667358221220ec03809e75cd5b6ea21324546766de8f0d011ec68b3f2306136347318f30c77064736f6c63430008000033",
  "linkReferences": {},
  "deployedLinkReferences": {}
}